:020000040000FA
:100000000C9463000C948B000C948B000C944C04A7
:100010000C944C040C944C040C948B000C948B00AA
:100020000C948B000C948B000C948B000C948B0024
:100030000C948B000C948B000C948B000C948B0014
:100040000C9402040C948B000C94D0030C94AA031F
:100050000C948B000C948B000C948B000C948B00F4
:100060000C948B000C948B000000000024002700EF
:100070002A0000000008000201000003040700003D
:1000800000000000000000000000230026002900FE
:1000900000000000250028002B00040404040404D0
:1000A0000404020202020202030303030303010227
:1000B00004081020408001020408102001020408F6
:1000C00010200905B90711241FBECFEFD8E0DEBF0D
:1000D000CDBF11E0A0E0B1E0E0E0F2E102C00590A8
:1000E0000D92AC34B107D9F722E0ACE4B1E001C025
:1000F0001D92AD35B207E1F710E0C2E6D0E004C0D2
:100100002197FE010E94DE08C136D107C9F70E947F
:10011000B4050C94F3080C940000AF92BF92CF92F8
:10012000DF92EF92FF920F931F93CF93DF936C01B7
:100130007B018B01040F151FEB015E01AE18BF0898
:10014000C017D10759F06991D601ED91FC9101904A
:10015000F081E02DC6010995892B79F7C501DF9162
:10016000CF911F910F91FF90EF90DF90CF90BF90B4
:10017000AF900895FC01538D448D252F30E0842FDE
:1001800090E0821B930B541710F0CF9608950197BF
:100190000895FC01918D828D981761F0A28DAE0FAC
:1001A000BF2FB11D5D968C91928D9F5F9F73928F33
:1001B00090E008958FEF9FEF0895FC01918D828D5F
:1001C000981731F0828DE80FF11D858D90E008952C
:1001D0008FEF9FEF0895FC01918D228D892F90E084
:1001E000805C9F4F821B91098F739927089581EA44
:1001F00091E00E94EB0021E0892B09F420E0822F9E
:10020000089580E090E0892B29F00E94F700811189
:100210000C9400000895FC01A48DA80FB92FB11D06
:10022000A35ABF4F2C91848D90E001968F7399272C
:10023000848FA689B7892C93A089B1898C9183700A
:1002400080648C93938D848D981306C00288F38903
:10025000E02D80818F7D80830895EF92FF920F9330
:100260001F93CF93DF93EC0181E0888F9B8D8C8D62
:1002700098131AC0E889F989808185FF15C09FB756
:10028000F894EE89FF896083E889F9898081837019
:10029000806480839FBF81E090E0DF91CF911F91C8
:1002A0000F91FF90EF900895F62E0B8D10E00F5FE9
:1002B0001F4F0F731127E02E8C8D8E110CC00FB6BF
:1002C00007FCFACFE889F989808185FFF5CFCE0157
:1002D0000E940B01F1CFEB8DEC0FFD2FF11DE35AC6
:1002E000FF4FF0829FB7F8940B8FEA89FB898081DA
:1002F0008062CFCFCF93DF93EC01888D8823B9F054
:10030000AA89BB89E889F9898C9185FD03C0808120
:1003100086FD0DC00FB607FCF7CF8C9185FFF2CF9D
:10032000808185FFEDCFCE010E940B01E9CFDF91E7
:10033000CF91089590E0FC01EE58FF4F2491FC010D
:10034000E255FF4F3491FC01E656FF4FE491EE2356
:10035000C9F0222339F0233001F1A8F4213019F13A
:10036000223029F1F0E0EE0FFF1FE057FF4FA5917B
:10037000B4918FB7F894EC91611126C030953E236B
:100380003C938FBF08952730A9F02830C9F024305E
:1003900049F7809180008F7D03C0809180008F7726
:1003A00080938000DFCF84B58F7784BDDBCF84B5A9
:1003B0008F7DFBCF8091B0008F778093B000D2CF3C
:1003C0008091B0008F7DF9CF3E2BDACFCF93DF93B2
:1003D00090E0FC01E255FF4F249186569F4FFC01AF
:1003E00084918823D1F090E0880F991FFC01E8598F
:1003F000FF4FA591B491FC01E057FF4FC591D491F7
:1004000061110EC09FB7F8948C91E22FE0958E2376
:100410008C932881E223E8839FBFDF91CF910895D9
:100420008FB7F894EC91E22BEC938FBFF6CF3FB7E8
:10043000F8948091910190919201A0919301B091D3
:10044000940126B5A89B05C02F3F19F00196A11D68
:10045000B11D3FBFBA2FA92F982F8827BC01CD010E
:10046000620F711D811D911D42E0660F771F881F6D
:10047000991F4A95D1F708958F929F92AF92BF929C
:10048000CF92DF92EF92FF926B017C010E941702E4
:100490004B015C01C114D104E104F104B9F00E94E4
:1004A0001702681979098A099B09683E734081051A
:1004B000910580F321E0C21AD108E108F10888EE25
:1004C000880E83E0981EA11CB11CE4CFFF90EF9032
:1004D000DF90CF90BF90AF909F908F900895209124
:1004E0009701309198012817390771F4909195017F
:1004F00080919601981741F0E0919501F0E0E45B5E
:10050000FE4F808190E008958FEF9FEF089508954A
:10051000EF92FF920F931F93CF93DF93DC015C96D2
:10052000ED90FC905D97E114F10479F481E090E0A6
:1005300013969C938E93129790E080E0DF91CF9179
:100540001F910F91FF90EF9008955196ED91FC91BE
:10055000529750968C915097982F90950FB75E9622
:100560002C915E97122F127021FD6095F8942081D6
:10057000112319F1282B2083E7012197F1F728E0B7
:10058000462F50E0308160FF1AC0382B3083E701DE
:100590002197F1F7BA0175956795215089F71123D5
:1005A00081F08081892380830FBF5C968D919C911F
:1005B0000197F1F781E090E0C1CF2923DCCF392307
:1005C000E5CF9081892BEFCF209197013091980151
:1005D0002817390771F4809196012091950190E0D8
:1005E000805C9F4F821B910960E470E00E946A0862
:1005F000089590E080E0089520919701309198014E
:1006000028173907B9F490919501809196019817B0
:1006100089F0E0919501F0E0E45BFE4F808120914C
:10062000950130E02F5F3F4F2F73332720939501C3
:1006300090E008958FEF9FEF089590E080E0089597
:10064000FB0101900020E9F73197AF01461B570BE2
:10065000DC01ED91FC910280F381E02D09948F92F1
:100660009F92AF92BF920F931F93CF93DF93CDB71B
:10067000DEB7A1970FB6F894DEBF0FBECDBF19A2AB
:10068000423008F44AE08E010F5D1F4F842E912CFA
:10069000B12CA12CA50194010E947E08E62FB9017E
:1006A000CA01EA3004F5E05DD801EE938D01232BF9
:1006B000242B252B79F790E080E0109729F0BD01DD
:1006C00081EA91E00E942003A1960FB6F894DEBF64
:1006D0000FBECDBFDF91CF911F910F91BF90AF9013
:1006E0009F908F900895E95CDFCFCF92DF92EF92D9
:1006F000FF92CF93DF936B017C016DE281EA91E081
:100700000E942D01EC0166277727CB016C197D092A
:100710008E099F094AE00E942F038C0F9D1FDF91D5
:10072000CF91FF90EF90DF90CF9008950F931F939C
:10073000CF93DF93EC010E9420038C0164E271E00F
:10074000CE010E942003800F911FDF91CF911F9156
:100750000F9108951F920F920FB60F9211242F93AD
:100760003F934F935F936F937F938F939F93AF9339
:10077000BF93EF93FF9381EA91E00E940B01FF91F9
:10078000EF91BF91AF919F918F917F916F915F9109
:100790004F913F912F910F900FBE0F901F90189582
:1007A0001F920F920FB60F9211242F938F939F9346
:1007B000EF93FF93E091B101F091B2018081E0915C
:1007C000B701F091B80182FD1BC090818091BA0100
:1007D0008F5F8F732091BB01821741F0E091BA01C6
:1007E000F0E0EF55FE4F958F8093BA01FF91EF91A6
:1007F0009F918F912F910F900FBE0F901F90189582
:100800008081F4CF1F920F920FB60F9211242F9375
:100810003F938F939F93AF93BF9380918D0190915E
:100820008E01A0918F01B091900130918C0123E055
:10083000230F2D3758F50196A11DB11D20938C0172
:1008400080938D0190938E01A0938F01B0939001BE
:100850008091910190919201A0919301B0919401A6
:100860000196A11DB11D8093910190939201A093D7
:100870009301B0939401BF91AF919F918F913F915C
:100880002F910F900FBE0F901F90189526E8230F01
:100890000296A11DB11DD2CF1F920F920FB60F92DB
:1008A00011242F933F934F935F936F937F938F9375
:1008B0009F93AF93BF93EF93FF93E0919701F091D4
:1008C0009801309749F0A685B7858585968D91FF6B
:1008D00014C09C918923A1F4FF91EF91BF91AF9136
:1008E0009F918F917F916F915F914F913F912F9148
:1008F0000F900FBE0F901F9018959C91892361F760
:10090000A389B4899C918589809589238C93868954
:1009100097890197F1F7608D718DA685B78555850B
:1009200038E020E0CB010197F1F7822F90E0959518
:100930008795282F4C91452309F02068315091F775
:10094000868D81FD20958091960190E001968F73B0
:10095000992730919501381799F0A0919601B0E050
:10096000A45BBE4F2C9380939601828D938D01974B
:10097000F1F7A389B4898C919589892B8C93ACCF9D
:10098000868D8160868FF1CFCF92DF92EF92FF92BA
:100990000F931F93E82FF92F05C00150110921096A
:1009A000310961F1908196239417B9F305C0015084
:1009B00011092109310911F1908196239413F7CF80
:1009C000C12CD12CE12CF12C0AC08FEFC81AD80A07
:1009D000E80AF80A0C151D052E053F0579F08081FF
:1009E0008623841791F36C2D7D2D8E2D9F2D1F91C5
:1009F0000F91FF90EF90DF90CF90089560E070E04E
:100A000080E090E01F910F91FF90EF90DF90CF90EA
:100A100008951092A4011092A30188EE93E0A0E043
:100A2000B0E08093A5019093A601A093A701B09395
:100A3000A80124E031E03093A2012093A10125EC2C
:100A400030E03093AE012093AD0124EC30E03093E0
:100A5000B0012093AF0120EC30E03093B20120933D
:100A6000B10121EC30E03093B4012093B30122ECCA
:100A700030E03093B6012093B50126EC30E030939E
:100A8000B8012093B7011092BA011092BB011092E5
:100A9000BC011092BD01109241021092400280935D
:100AA000420290934302A0934402B093450286E130
:100AB00091E090933F0280933E0210925502109273
:100AC000540210925702109256021092590210923C
:100AD000580210925B0210925A0260915C026E7F83
:100AE0006D7F60935C026695617081E0682783E0AA
:100AF0000E949A0161E083E00E94E601E1EBF0E0F0
:100B0000E491E0934E02EDE9F0E0E491F0E0EE0FC5
:100B1000FF1FE057FF4F859194919093500280936F
:100B20004F0260E082E00E94E60180915C0281FD5C
:100B300004C061E082E00E949A0182E080934A0250
:100B4000E0EBF0E0E491E0934B02ECE9F0E0E491BB
:100B5000F0E0EE0FFF1FEA57FF4F859194919093BD
:100B60004D0280934C020895789484B5826084BDD0
:100B700084B5816084BD85B5826085BD85B58160A1
:100B800085BD80916E00816080936E00109281001F
:100B900080918100826080938100809181008160DA
:100BA000809381008091800081608093800080919B
:100BB000B10084608093B1008091B0008160809327
:100BC000B00080917A00846080937A0080917A00EE
:100BD000826080937A0080917A00816080937A00AD
:100BE00080917A00806880937A001092C100E09131
:100BF000B101F091B20182E08083E091AD01F0910A
:100C0000AE011082E091AF01F091B0018FEC8083D2
:100C10001092B901E091B501F091B60186E08083B0
:100C2000E091B301F091B401808180618083E09113
:100C3000B301F091B401808188608083E091B301B9
:100C4000F091B401808180688083E091B301F091DC
:100C5000B40180818F7D80831092590210925802D6
:100C6000109257021092560210925502109254029E
:100C70008DE991E090935B0280935A0290914A0231
:100C8000963108F047C02DEB30E0309355022093A9
:100C900054022BE931E030935702209356022CE2A4
:100CA00031E030935902209358022091680084E08B
:100CB000983048F031E09E3008F430E081E001C027
:100CC000880F3A95EAF7822B809368002DE630E092
:100CD000983050F02BE630E09E3030F02CE630E0DB
:100CE000963110F030E020E0309352022093510210
:100CF000292F30E0983008F012C181E001C0880F40
:100D00009A95EAF78093530280915A0290915B0280
:100D10000197F1F78091580290915902892B49F17E
:100D2000E0919701F091980182E0EE33F80709F124
:100D3000309739F0A389B4899C918589809589235E
:100D40008C9380915C028E7F80935C02109296015E
:100D5000109295018EE392E0909398018093970111
:100D6000E0915102F0915202808190915302892BBF
:100D7000808361E086E00E94E60160E085E00E94F9
:100D8000E60161E084E00E94E60193E2292E312C25
:100D90002AE3422E512C612C712CC0E0D0E060E09F
:100DA00086E00E949A0183E090E00197F1F761E00C
:100DB00086E00E949A01C1010197F1F760E086E0A8
:100DC0000E949A01E3EBF0E06491EFE9F0E0849196
:100DD000E82FF0E0EE0FFF1FEA57FF4F8591949147
:100DE00000E412E42FE030E0462F0E94C4046115B5
:100DF00071058105910529F06F5F7F4F8F4F9F4FE0
:100E00009F70A30192010E94A00869017A01A3E0EA
:100E1000B0E00E94BF08625E7F4F8F4F9F4F0E94DD
:100E200006084B015C0180929D0190929E01A09268
:100E30009F01B092A00180919B0190919C0184360A
:100E400091050CF07DC0D701C6010397A109B10936
:100E50008F97A105B10508F051C061E084E00E94C0
:100E60009A01C501B4010E94D5070E943C0260E0CE
:100E700084E00E949A018091990190919A010196D3
:100E800090939A018093990102977CF167E271E057
:100E900081EA91E00E9420036091990170919A018A
:100EA000072E000C880B990B97FF46C00E94750314
:100EB00062E371E081EA91E00E94200364E371E063
:100EC00081EA91E00E9496034AE0C701B6010E94C0
:100ED0002F0364E271E081EA91E00E9420036AE35B
:100EE00071E08EE392E00E94960380919B019091C5
:100EF0009C01019690939C0180939B0168EC70E0AB
:100F000080E090E00E943C02209709F448CF0E94C4
:100F1000F700882309F443CF0E94000040CF9E30A1
:100F200040F42850310981E001C0880F2A95EAF782
:100F3000E9CE2E503109F7CF4AE00E942F03B8CFF7
:100F400010929C0110929B0110929A0110929901AB
:100F500060E084E00E949A0160E471E081EA91E03F
:100F60000E94960360E471E08EE392E00E94960393
:100F7000C5CF86E191E090933F0280933E0280913D
:100F80009701909198018E53924071F4E091510233
:100F9000F091520290818091530280958923808341
:100FA000109298011092970108950E94490888F0C4
:100FB0009F5798F0B92F9927B751B0F0E1F0660F1D
:100FC000771F881F991F1AF0BA95C9F714C0B1305E
:100FD00091F00E946308B1E008950C946308672FB4
:100FE000782F8827B85F39F0B93FCCF3869577958D
:100FF0006795B395D9F73EF4909580957095619576
:101000007F4F8F4F9F4F0895E89409C097FB3EF4A0
:1010100090958095709561957F4F8F4F9F4F992345
:10102000A9F0F92F96E9BB279395F69587957795C3
:101030006795B795F111F8CFFAF4BB0F11F460FF83
:101040001BC06F5F7F4F8F4F9F4F16C0882311F0DB
:1010500096E911C0772321F09EE8872F762F05C0EF
:10106000662371F096E8862F70E060E02AF09A958A
:10107000660F771F881FDAF7880F9695879597F97F
:10108000089557FD9058440F551F59F05F3F71F078
:101090004795880F97FB991F61F09F3F79F08795DF
:1010A0000895121613061406551FF2CF4695F1DF68
:1010B00008C0161617061806991FF1CF86957105F8
:1010C000610508940895E894BB2766277727CB012C
:1010D00097F9089597FB072E16F4009407D077FD33
:1010E00009D00E94CA0807FC05D03EF4909581956E
:1010F0009F4F0895709561957F4F0895A1E21A2E34
:10110000AA1BBB1BFD010DC0AA1FBB1FEE1FFF1FAB
:10111000A217B307E407F50720F0A21BB30BE40BFB
:10112000F50B661F771F881F991F1A9469F7609542
:101130007095809590959B01AC01BD01CF010895FC
:10114000052E97FB1EF400940E94B70857FD07D0A8
:101150000E947E0807FC03D04EF40C94B70850950B
:101160004095309521953F4F4F4F5F4F0895909593
:101170008095709561957F4F8F4F9F4F08950E9486
:10118000E408A59F900DB49F900DA49F800D911D24
:1011900011240895AA1BBB1B51E107C0AA1FBB1F46
:1011A000A617B70710F0A61BB70B881F991F5A95F3
:1011B000A9F780959095BC01CD010895EE0FFF1F12
:1011C0000590F491E02D0994A29FB001B39FC00156
:1011D000A39F700D811D1124911DB29F700D811D63
:1011E0001124911D089510E0C2E6D0E004C0FE0174
:1011F0000E94DE082196C336D107C9F7F894FFCFC5
:10120000000000002D018D00BA007A01EB00C9003A
:10121000DD000000000088028D001D038702E4024B
:10122000FC026F020D0A00446574656B636A613AE3
:1012300020002C00414C41524D00616C61726D00E8
:0C12400062657A706965637A6E7900005F
:107E0000112484B714BE81FFF0D085E080938100F7
:107E100082E08093C00088E18093C10086E0809377
:107E2000C20080E18093C4008EE0C9D0259A86E02C
:107E300020E33CEF91E0309385002093840096BBD3
:107E4000B09BFECF1D9AA8958150A9F7CC24DD24C4
:107E500088248394B5E0AB2EA1E19A2EF3E0BF2EE7
:107E6000A2D0813461F49FD0082FAFD0023811F036
:107E7000013811F484E001C083E08DD089C08234E0
:107E800011F484E103C0853419F485E0A6D080C0E4
:107E9000853579F488D0E82EFF2485D0082F10E0AE
:107EA000102F00270E291F29000F111F8ED06801E7
:107EB0006FC0863521F484E090D080E0DECF843638
:107EC00009F040C070D06FD0082F6DD080E0C81688
:107ED00080E7D80618F4F601B7BEE895C0E0D1E017
:107EE00062D089930C17E1F7F0E0CF16F0E7DF06D8
:107EF00018F0F601B7BEE89568D007B600FCFDCFD4
:107F0000A601A0E0B1E02C9130E011968C91119780
:107F100090E0982F8827822B932B1296FA010C0160
:107F200087BEE89511244E5F5F4FF1E0A038BF0790
:107F300051F7F601A7BEE89507B600FCFDCF97BE46
:107F4000E89526C08437B1F42ED02DD0F82E2BD052
:107F50003CD0F601EF2C8F010F5F1F4F84911BD097
:107F6000EA94F801C1F70894C11CD11CFA94CF0C13
:107F7000D11C0EC0853739F428D08EE10CD085E9AC
:107F80000AD08FE07ACF813511F488E018D01DD067
:107F900080E101D065CF982F8091C00085FFFCCF94
:107FA0009093C60008958091C00087FFFCCF809118
:107FB000C00084FD01C0A8958091C6000895E0E648
:107FC000F0E098E1908380830895EDDF803219F02E
:107FD00088E0F5DFFFCF84E1DECF1F93182FE3DFCA
:107FE0001150E9F7F2DF1F91089580E0E8DFEE27F6
:047FF000FF270994CA
:027FFE00040479
:00000001FF
