:100000000C9462000C948A000C948A000C948A0070
:100010000C948A000C948A000C948A000C948A0038
:100020000C948A000C948A000C948A000C948A0028
:100030000C948A000C948A000C948A000C948A0018
:100040000C94D3020C948A000C94A1020C947B02B1
:100050000C948A000C948A000C948A000C948A00F8
:100060000C948A000C948A000000000024002700F1
:100070002A0000000000250028002B0000000008D6
:10008000000201000003040700000000000000005F
:1000900000000000230026002900040404040404D6
:1000A0000404020202020202030303030303010227
:1000B00004081020408001020408102001020408F6
:1000C0001020C50411241FBECFEFD8E0DEBFCDBF86
:1000D00011E0A0E0B1E0E8EDFCE002C005900D9277
:1000E000AA31B107D9F721E0AAE1B1E001C01D9220
:1000F000A43CB207E1F710E0C2E6D0E004C02197CB
:10010000FE010E945506C136D107C9F70E9462035D
:100110000C946A060C940000AF92BF92CF92DF92CB
:10012000EF92FF920F931F93CF93DF936C017B01AC
:100130008B01040F151FEB015E01AE18BF08C0173D
:10014000D10759F06991D601ED91FC910190F081B0
:10015000E02DC6010995892B79F7C501DF91CF9173
:100160001F910F91FF90EF90DF90CF90BF90AF90D5
:100170000895FC01538D448D252F30E0842F90E0AD
:10018000821B930B541710F0CF9608950197089592
:10019000FC01918D828D981761F0A28DAE0FBF2F5B
:1001A000B11D5D968C91928D9F5F9F73928F90E0B1
:1001B00008958FEF9FEF0895FC01918D828D981720
:1001C00031F0828DE80FF11D858D90E008958FEF5D
:1001D0009FEF0895FC01918D228D892F90E0805C26
:1001E0009F4F821B91098F739927089587E291E0B1
:1001F0000E94EA0021E0892B09F420E0822F089573
:1002000080E090E0892B29F00E94F60081110C9487
:1002100000000895FC01A48DA80FB92FB11DA35AA9
:10022000BF4F2C91848D90E001968F739927848F16
:10023000A689B7892C93A089B1898C918370806439
:100240008C93938D848D981306C00288F389E02DDA
:1002500080818F7D80830895EF92FF920F931F938B
:10026000CF93DF93EC0181E0888F9B8D8C8D981369
:100270001AC0E889F989808185FF15C09FB7F89475
:10028000EE89FF896083E889F989808183708064C1
:1002900080839FBF81E090E0DF91CF911F910F910C
:1002A000FF90EF900895F62E0B8D10E00F5F1F4F1B
:1002B0000F731127E02E8C8D8E110CC00FB607FC2A
:1002C000FACFE889F989808185FFF5CFCE010E94B8
:1002D0000A01F1CFEB8DEC0FFD2FF11DE35AFF4F1B
:1002E000F0829FB7F8940B8FEA89FB898081806246
:1002F000CFCFCF93DF93EC01888D8823B9F0AA8903
:10030000BB89E889F9898C9185FD03C0808186FDD0
:100310000DC00FB607FCF7CF8C9185FFF2CF80811F
:1003200085FFEDCFCE010E940A01E9CFDF91CF9189
:10033000089590E0FC01E458FF4F2491FC01E25540
:10034000FF4F3491FC01E656FF4FE491EE23C9F0D4
:10035000222339F0233001F1A8F4213019F12230A1
:1003600029F1F0E0EE0FFF1FEE58FF4FA591B49179
:100370008FB7F894EC91611126C030953E233C93E1
:100380008FBF08952730A9F02830C9F0243049F7ED
:10039000809180008F7D03C0809180008F77809353
:1003A0008000DFCF84B58F7784BDDBCF84B58F7DB0
:1003B000FBCF8091B0008F778093B000D2CF809137
:1003C000B0008F7DF9CF3E2BDACFCF93DF9390E053
:1003D000FC01E255FF4F249186569F4FFC0184910A
:1003E0008823D1F090E0880F991FFC01E859FF4F56
:1003F000A591B491FC01EE58FF4FC591D4916111C4
:100400000EC09FB7F8948C91E22FE0958E238C93C9
:100410002881E223E8839FBFDF91CF9108958FB7B2
:10042000F894EC91E22BEC938FBFF6CF3FB7F894A2
:1004300080911F0190912001A0912101B091220192
:1004400026B5A89B05C02F3F19F00196A11DB11D2F
:100450003FBFBA2FA92F982F8827BC01CD01620F6B
:10046000711D811D911D42E0660F771F881F991F26
:100470004A95D1F708958F929F92AF92BF92CF92F3
:10048000DF92EF92FF926B017C010E9416024B01FA
:100490005C01C114D104E104F104B9F00E94160218
:1004A000681979098A099B09683E7340810591059D
:1004B00080F321E0C21AD108E108F10888EE880E25
:1004C00083E0981EA11CB11CE4CFFF90EF90DF9059
:1004D000CF90BF90AF909F908F900895FC010190B6
:1004E0000020E9F73197AF01481B590BBC0187E2A7
:1004F00091E00C948C001F920F920FB60F92112472
:100500002F933F934F935F936F937F938F939F931B
:10051000AF93BF93EF93FF9387E291E00E940A01AC
:10052000FF91EF91BF91AF919F918F917F916F91CB
:100530005F914F913F912F910F900FBE0F901F90A1
:1005400018951F920F920FB60F9211242F938F932D
:100550009F93EF93FF93E0913701F09138018081F1
:10056000E0913D01F0913E0182FD1BC090818091A0
:1005700040018F5F8F7320914101821741F0E0911C
:100580004001F0E0E95DFE4F958F80934001FF91BF
:10059000EF919F918F912F910F900FBE0F901F9011
:1005A00018958081F4CF1F920F920FB60F921124ED
:1005B0002F933F938F939F93AF93BF9380911B0192
:1005C00090911C01A0911D01B0911E0130911A0162
:1005D00023E0230F2D3758F50196A11DB11D20935F
:1005E0001A0180931B0190931C01A0931D01B093ED
:1005F0001E0180911F0190912001A0912101B091D5
:1006000022010196A11DB11D80931F01909320012D
:10061000A0932101B0932201BF91AF919F918F913F
:100620003F912F910F900FBE0F901F90189526E8C5
:10063000230F0296A11DB11DD2CFCF92DF92EF9270
:10064000FF920F931F93E82FF92F05C00150110956
:100650002109310961F1908196239417B9F305C0FE
:10066000015011092109310911F190819623941348
:10067000F7CFC12CD12CE12CF12C0AC08FEFC81A76
:10068000D80AE80AF80A0C151D052E053F0579F071
:1006900080818623841791F36C2D7D2D8E2D9F2DC7
:1006A0001F910F91FF90EF90DF90CF90089560E041
:1006B00070E080E090E01F910F91FF90EF90DF904D
:1006C000CF900895CF93DF93CDB7DEB7A1970FB644
:1006D000F894DEBF0FBECDBF789484B5826084BD30
:1006E00084B5816084BD85B5826085BD85B5816036
:1006F00085BD80916E00816080936E0010928100B4
:10070000809181008260809381008091810081606E
:10071000809381008091800081608093800080912F
:10072000B10084608093B1008091B00081608093BB
:10073000B00080917A00846080937A0080917A0082
:10074000826080937A0080917A00816080937A0041
:1007500080917A00806880937A001092C100E091C5
:100760003701F091380182E08083E0913301F0910C
:1007700034011082E0913501F09136018FEC8083D5
:1007800010923F01E0913B01F0913C0186E08083B3
:10079000E0913901F0913A01808180618083E0919C
:1007A0003901F0913A01808188608083E0913901BC
:1007B000F0913A01808180688083E0913901F09165
:1007C0003A0180818F7D808361E086E00E94E501AF
:1007D00060E085E00E94E50161E082E00E94E501C1
:1007E00043E0242E312C53E2852E912C6AE0462ED4
:1007F000512C612C712C70E0A72E70E0B72E60E0B8
:1008000086E00E949901C1010197F1F761E086E05D
:100810000E949901C4010197F1F760E086E00E940F
:100820009901E3EBF0E06491EFE9F0E08491E82FC7
:10083000F0E0EE0FFF1FE057FF4F8591949100E429
:1008400012E42FE030E0462F0E941D036115710570
:100850008105910529F06F5F7F4F8F4F9F4F9F70EC
:1008600095958795779567950E949C052DEC3CECB6
:1008700048EE51E40E94F2040E9464056B017C0181
:10088000A3E0B0E0AC019B010E944A06625E7F4F8C
:100890008F4F9F4F0E949C0560932301709324010A
:1008A0008093250190932601F7FE59C06DE287E2FF
:1008B00091E00E942C0122273327A9012C193D0920
:1008C0004E095F0919A28E010F5D1F4FCA01B901C0
:1008D000A30192010E942806605DF80162938F01D6
:1008E000211531054105510589F70115110519F04B
:1008F000C8010E946E0282E191E00E946E0287E1CF
:1009000091E00E946E02F2E3CF16D104E104F104FB
:1009100084F461E082E00E9499016091230170916A
:10092000240180912501909126010E946B050E946F
:100930003B0260E082E00E94990168EC70E080E098
:1009400090E00E943B02A114B10409F458CF0E9428
:10095000F600882309F453CF0E94000050CFA7016E
:10096000960119A28E010F5D1F4FCA01B901A301A3
:1009700092010E942806605DF80162938F012115A3
:1009800031054105510589F7B0CFE7E2F1E0138267
:10099000128288EE93E0A0E0B0E084839583A68382
:1009A000B78384E091E09183808385EC90E0958724
:1009B000848784EC90E09787868780EC90E0918B29
:1009C000808B81EC90E0938B828B82EC90E0958B16
:1009D000848B86EC90E0978B868B118E128E138E13
:1009E000148E08950E9406050C94EE050E94E705FA
:1009F00058F00E94E00540F029F45F3F29F00C9484
:100A0000D70551110C9422060C94DD050E94FF05B8
:100A100068F39923B1F3552391F3951B550BBB272D
:100A2000AA2762177307840738F09F5F5F4F220F72
:100A3000331F441FAA1FA9F335D00E2E3AF0E0E869
:100A400032D091505040E695001CCAF72BD0FE2FB3
:100A500029D0660F771F881FBB1F26173707480747
:100A6000AB07B0E809F0BB0B802DBF01FF279358FF
:100A70005F4F3AF09E3F510578F00C94D7050C94E7
:100A800022065F3FE4F3983ED4F386957795679509
:100A9000B795F7959F5FC9F7880F911D9695879534
:100AA00097F90895E1E0660F771F881FBB1F621753
:100AB00073078407BA0720F0621B730B840BBA0B11
:100AC000EE1F88F7E09508950E946B056894B111B8
:100AD0000C94220608950E94070688F09F5798F00C
:100AE000B92F9927B751B0F0E1F0660F771F881F33
:100AF000991F1AF0BA95C9F714C0B13091F00E944D
:100B00002106B1E008950C942106672F782F8827DD
:100B1000B85F39F0B93FCCF3869577956795B39573
:100B2000D9F73EF490958095709561957F4F8F4FE2
:100B30009F4F0895E89409C097FB3EF490958095E7
:100B4000709561957F4F8F4F9F4F9923A9F0F92F93
:100B500096E9BB279395F695879577956795B79511
:100B6000F111F8CFFAF4BB0F11F460FF1BC06F5FF7
:100B70007F4F8F4F9F4F16C0882311F096E911C009
:100B8000772321F09EE8872F762F05C0662371F02A
:100B900096E8862F70E060E02AF09A95660F771F3E
:100BA000881FDAF7880F9695879597F9089597F932
:100BB0009F6780E870E060E008959FEF80EC089503
:100BC00000240A941616170618060906089500242C
:100BD0000A9412161306140605060895092E0394A6
:100BE000000C11F4882352F0BB0F40F4BF2B11F41A
:100BF00060FF04C06F5F7F4F8F4F9F4F089557FD79
:100C00009058440F551F59F05F3F71F04795880F7A
:100C100097FB991F61F09F3F79F087950895121611
:100C200013061406551FF2CF4695F1DF08C01616BD
:100C300017061806991FF1CF86957105610508946E
:100C40000895E894BB2766277727CB0197F9089585
:100C5000A1E21A2EAA1BBB1BFD010DC0AA1FBB1FC0
:100C6000EE1FFF1FA217B307E407F50720F0A21B32
:100C7000B30BE40BF50B661F771F881F991F1A949F
:100C800069F760957095809590959B01AC01BD01C9
:100C9000CF0108950E945B06A59F900DB49F900D13
:100CA000A49F800D911D11240895EE0FFF1F059044
:100CB000F491E02D0994A29FB001B39FC001A39FBE
:100CC000700D811D1124911DB29F700D811D112485
:080CD000911D0895F894FFCF77
:100CD800000000002C018C00B9007901EA00C8006E
:0A0CE800DC002020636D000D0A00FF
:00000001FF
